:020000040800F2
:1000000000A00020850A0008A1080008A308000835
:10001000A5080008A7080008A908000800000000BB
:10002000000000000000000000000000AB08000815
:10003000AD08000800000000AF080008B108000883
:10004000D50A0008D50A0008D50A0008D50A000814
:10005000D50A0008D50A0008D50A0008D50A000804
:10006000D50A0008D50A0008D50A0008D50A0008F4
:10007000D50A0008D50A0008D50A0008D50A0008E4
:10008000D50A0008D50A0008D50A0008D50A0008D4
:10009000D50A0008D50A0008D50A0008D50A0008C4
:1000A000D50A0008D50A0008D50A0008D50A0008B4
:1000B000D50A0008D50A0008D50A0008D50A0008A4
:1000C000D50A0008D50A0008D50A0008D50A000894
:1000D000D50A0008D50A0008D50A0008D50A000884
:1000E000D50A0008D50A0008D50A0008D50A000874
:1000F000D50A0008D50A0008D50A0008D50A000864
:10010000000000000000000000000000D50A000808
:10011000D50A0008D50A0008D50A0008D50A000843
:10012000D50A0008D50A0008D50A0008D50A000833
:10013000D50A0008D50A00080000000000000000F1
:10014000D50A0008D50A0008D50A000800000000FA
:10015000000000000000000000000000000000009F
:100160000000000000000000D50A0008D50A0008C1
:10017000D50A000800000000000000000000000098
:0801800000000000D50A000890
:1001C0000348044B834202D0034B03B118477047E6
:1001D0000C0000200C000020000000000548064B29
:1001E0001B1AD90F01EBA301491002D0034B03B135
:1001F000184770470C0000200C0000200000000091
:1002000010B5064C237843B9FFF7DAFF044B13B15E
:100210000448AFF300800123237010BD0C000020C0
:1002200000000000181E000808B5044B1BB104496B
:100230000448AFF30080BDE80840CFE700000000AD
:1002400010000020181E000880EA0102844612F007
:10025000030F4FD111F0030F32D14DF8044D11F0BF
:10026000040F51F8043B0BD0A3F101329A4312F072
:10027000803F04BF4CF8043B51F8043B16D100BF4B
:1002800051F8044BA3F101329A4312F0803FA4F1DC
:1002900001320BD14CF8043BA24312F0803F04BF63
:1002A00051F8043B4CF8044BEAD023460CF8013BD0
:1002B00013F0FF0F4FEA3323F8D15DF8044B70477A
:1002C00011F0010F06D011F8012B0CF8012B002AB8
:1002D00008BF704711F0020FBFD031F8022B12F0A7
:1002E000FF0F16BF2CF8022B8CF8002012F47F4F62
:1002F000B3D1704711F8012B0CF8012B002AF9D16A
:10030000704700BF70B50F4B0F4DAB42A3EB050616
:1003100007D0B610002455F8043B01349847A64294
:10032000F9D801F079FD094D094B5E1BAB424FEA4C
:10033000A60606D0002455F8043B01349847A6428F
:10034000F9D870BDE41E0008E41E0008E41E000891
:10035000E81E00080000000000000000000000008F
:10036000000000000000000000000000000000008D
:10037000000000000000000000000000000000007D
:1003800030B490F800F020F007016FF0000C10F08E
:10039000070491F820F040F048804FF000046FF01F
:1003A0000700D1E9002391F840F000F1080082FA3B
:1003B0004CF2A4FA8CF283FA4CF3A2FA8CF34BBB06
:1003C000D1E9022382FA4CF200F10800A4FA8CF27F
:1003D00083FA4CF3A2FA8CF3E3B9D1E9042382FA4D
:1003E0004CF200F10800A4FA8CF283FA4CF3A2FA62
:1003F0008CF37BB9D1E9062301F1200182FA4CF29A
:1004000000F10800A4FA8CF283FA4CF3A2FA8CF300
:10041000002BC6D0002A04BF04301A4612BAB2FA22
:1004200082F200EBD20030BC7047D1E9002304F027
:100430000305C4F100004FEAC50514F0040F91F85C
:1004400040F00CFA05F562EA05021CBF63EA0503F9
:1004500062464FF00004AAE7830730B547D0541E28
:10046000002A3ED0CAB2034601E0013C39D303F86A
:10047000012B9D07F9D1032C2CD9CDB205EB052515
:100480000F2C05EB054535D9A4F1100222F00F0C15
:1004900003F1100EE6444FEA121C1A46C2E9005559
:1004A000C2E9025510327245F8D10CF1010214F084
:1004B0000C0F03EB021204F00F0C13D0ACF1040389
:1004C00023F003030433134442F8045B9342FBD14B
:1004D0000CF003042CB1C9B21C4403F8011BA34265
:1004E000FBD130BD64461346002CF4D1F9E7034636
:1004F0001446C0E71A46A446E0E700BF10B504461C
:10050000FFF73EFF214682B2BDE8104002484FF09F
:10051000FF3301F05DBB00BFFC02002030B59FB08F
:100520001422002107A8FFF797FF14220021684634
:10053000FFF792FF3C220DEB02000021FFF78CFF3A
:100540004FF4A0230322CDE9052301241023CDE994
:10055000094302254FF48033CDE90C5305A84FF42D
:1005600080130E9300F0C6FB08B172B6FEE70F23AE
:10057000CDE900354FF48063CDE903300290214688
:10058000684600F037FE08B172B6FEE7074B0F93DE
:10059000129016904FF480030FA81D9300F002FFF5
:1005A00008B172B6FEE71FB030BD00BF22000200E6
:1005B00070B58AB000F07AFBFFF7B0FF142200217B
:1005C0000DEB0200FFF748FF724B73485A69734CFA
:1005D00042F400125A615A6902F400120092009A21
:1005E0005A6942F400225A615A6902F400220192C7
:1005F000019A5A6942F480025A615A6902F48002EF
:100600000292029A5A6942F400325A615A6902F41B
:1006100000320392039A5A6942F480225A615B695C
:1006200003F48023002204934FF608710025049BF5
:10063000372601F079F84FF490135748079505A92C
:10064000CDE9056300F0ACFF01264FF60873524870
:1006500005A9CDE90536CDE9075500F0A1FF05A9AB
:100660004FF09040CDE90565079500F099FFDFF860
:1006700064C14B4B25622046C4E900C3C4E902565D
:10068000C4E90455C4E9065500F04BFA014608B127
:1006900072B6FEE7204600F099FA014608B172B63C
:1006A000FEE7204600F0B8FA034608B172B6FEE74E
:1006B0003C483D4C83604FF48272C0E900424FF4E5
:1006C0004072C0E90323072108224FF40075C0E9F6
:1006D0000833C0E90B1343618362C0E906524263E9
:1006E00001F080F8034608B172B6FEE72F483049A2
:1006F00003614FF4E132C0E900120C22C0E9023379
:10070000C0E90523C0E90733436201F00BFB034650
:1007100008B172B6FEE72748274A02604FF402721A
:1007200082800222C2714372C37201F029FB08B1B8
:1007300072B6FEE72148FFF7E1FE00F04DF82020F9
:1007400000F05EF80546302000F05AF80446F5B196
:10075000E8B11B492846FFF777FD1A492046FFF705
:1007600073FD2846FFF7CAFE1748FFF7C7FE20466D
:10077000FFF7C4FE1448FFF7C1FE284600F06EF8EC
:10078000204600F06BF81148FFF7B8FEFEE710486E
:10079000F1E700BF0010024000100048E80300200D
:1007A0002B1D20008403002000300140FC020020AB
:1007B0000044004028000020005C0040301E00087B
:1007C0005B1E00086B1E00089F1E0008921E00089A
:1007D0007D1E00080054004008B54FF480720021CF
:1007E0000548FFF739FEBDE8084004484FF4806231
:1007F0000021FFF731BE00BF3C0800203C04002070
:1008000070B5F8B113490F30002305091C461A468C
:10081000084611F8016BB6B9002A08BF1C46013220
:10082000954211D1EC4234BF2A46002201212044D6
:10083000FFF712FE084B200100F1005043F824504E
:1008400000F5805070BD00220133B3F5807FE0D108
:100850000020F7E73C0800203C04002038B5D0B168
:1008600000F16040A0F58054B4F5805F13D2002CF5
:10087000BCBF6FF47F63C4182411074D074855F8B7
:100880002420D44228BF002200212044FFF7E4FDA9
:10089000002345F8243038BD3C0400203C080020EB
:1008A000FEE7FEE7FEE7FEE7FEE7704770477047AA
:1008B00000F00EBA0B4B9A6942F001029A619A69F4
:1008C00082B002F001020092009ADA6942F080528E
:1008D000DA61DB6903F080530193019B072002B0CA
:1008E00000F028BF0010024010B5044688B0142262
:1008F000002103A8FFF7B0FD2268134B9A4220D1D4
:10090000124C1348636943F480236361636903F401
:1009100080230193019BC0221223CDE903230121EF
:100920000323CDE90513042303A9079300F038FE40
:10093000E36943F40013E361E36903F400130293F2
:10094000029B08B010BD00BF0054004000100240E0
:100950000004004810B5044688B01422002103A802
:10096000FFF77AFD2268134B9A4220D103F56043CA
:1009700003219A6942F480529A619A6902F4805282
:100980000192019A5A6942F400325A615B6903F498
:1009900000330293029BE0220223CDE903230523C7
:1009A000CDE906134FF0904003A900F0F9FD08B01F
:1009B00010BD00BF0030014010B5044688B01422BD
:1009C000002103A8FFF748FD2268134B9A4220D16B
:1009D00003F5E6330321DA6942F40032DA61DA69B9
:1009E00002F400320192019A5A6942F400325A61CB
:1009F0005B6903F400330293029B0C220223CDE9CE
:100A000003230723CDE906134FF0904003A900F01C
:100A1000C7FD08B010BD00BF0044004010B504463B
:100A200088B01422002103A8FFF716FD2268134B9B
:100A30009A4220D1124C636943F4003363616369C5
:100A400003F400330193019B4FF4C0520223CDE91C
:100A5000032303210E23CDE906134FF0904003A991
:100A600000F09EFDE36943F40003E361E36903F4EE
:100A700000030293029B08B010BD00BF005C004061
:100A800000100240DFF834D000F026F80C480D4981
:100A90000D4A002302E0D458C4500433C4188C42D9
:100AA000F9D30A4A0A4C002301E013600432A2423F
:100AB000FBD3FFF727FCFFF77BFDFEE700A000203C
:100AC000000000200C000020EC1E00080C0000209C
:100AD00040090020FEE70000034AD2F8883043F4C2
:100AE0007003C2F88830704700ED00E0B0F8403085
:100AF00023F47C535B045B0CA0F84030002070476B
:100B000082B0034602A800E9060000200122A3F8F3
:100B10004020A3F84000A3F84400A3F8500002B01E
:100B2000704710B5044600284ED090F8413003F0CD
:100B3000FF021BB980F84020FFF7D6FE242384F87B
:100B4000413023681A6822F001021A60626822F0BC
:100B500070621A619A6822F400429A60D4E9022114
:100B6000012906D142F400429A605A6822F40062D8
:100B700007E042F4044202299A60F6D15A6842F42E
:100B800000625A605A6842F0007242F400425A60B1
:100B9000DA6822F40042DA60D4E904210A43A16948
:100BA00042EA0122DA60D4E907210A431A601A688E
:100BB00042F001021A6000202023606484F8413072
:100BC000206384F8420010BD0120FCE710B590F8C6
:100BD0004120202A0346D4B21CD190F84020012A9B
:100BE00018D0242280F841200268106820F001000B
:100BF0001060106820F4805010601068014311608C
:100C00001168002041F00101116083F8414083F830
:100C1000400010BD0220FCE710B590F84120202ACA
:100C20000346D4B21BD190F84020012A17D02422C9
:100C300080F841200268106820F001001060106800
:100C400020F4706040EA012111601168002041F039
:100C50000101116083F8414083F8400010BD02207B
:100C6000FCE7000038B50E4B1A784FF47A73B3FBEB
:100C7000F2F30C4A05461068B0FBF3F000F09EFD5D
:100C8000044658B90F2D09D8024629464FF0FF30C7
:100C900000F062FD044B20461D6038BD0120FCE7DA
:100CA000040000200000002008000020074A08B5CA
:100CB000136843F010031360032000F03BFD002095
:100CC000FFF7D0FFFFF7F6FD002008BD002002402F
:100CD000034A044B11681B780B441360704700BF34
:100CE0003C09002004000020014B1868704700BF39
:100CF0003C0900202DE9F3470546002833D003685E
:100D0000DA0711D42B689B0700F181802B681C0740
:100D100000F1EB802B68580700F13081EB69002B64
:100D200040F0B581002047E0B04C636803F00C034D
:100D3000042B07D0636803F00C03082B15D16368FC
:100D4000DF0312D54FF4003393FAA3F2216893FA2C
:100D5000A3F30122B3FA83F302FA03F30B42D1D0D7
:100D60006B68002BCED1012026E06A68B2F5803F87
:100D700025D1236843F480332360E36AA96823F014
:100D80000F030B43E36252B3FFF7AEFF4FF400379C
:100D900006464FF0010897FAA7F3226897FAA7F3DF
:100DA000B3FA83F308FA03F31342ABD1FFF79CFFC6
:100DB000801B6428EFD9032002B0BDE8F0872368C8
:100DC00032B923F480332360236823F48023D3E7EC
:100DD000B2F5A02FF5D143F480232360C9E7FFF7D4
:100DE00083FF4FF4003706464FF0010897FAA7F348
:100DF000226897FAA7F3B3FA83F308FA03F31342CE
:100E000080D0FFF771FF801B6428EFD9D3E7774CC0
:100E1000636813F00C0F07D0636803F00C03082B12
:100E20001FD16368DE031CD4022393FAA3F2216866
:100E300093FAA3F30122B3FA83F302FA03F30B420A
:100E400002D02B6993428ED12168F82292FAA2F245
:100E50006B69B2FA82F2934021F0F80213432360E7
:100E600054E72A690126FAB196FAA6F3B3FA83F396
:100E700003F1845303F584139B004FF002081E60B6
:100E8000FFF732FF074698FAA8F3226898FAA8F30A
:100E9000B3FA83F306FA03F31342D5D1FFF724FF25
:100EA000C01B0228EFD986E796FAA6F3B3FA83F3BC
:100EB00003F1845303F584139B004FF002081A607A
:100EC000FFF712FF074698FAA8F3226898FAA8F3EA
:100ED000B3FA83F306FA03F313423FF417AFFFF7B5
:100EE00003FFC01B0228EED965E7AA693F4E4049BF
:100EF00001240AB394FAA4F3B3FA83F30B449B00DE
:100F000002271C60FFF7F0FE804697FAA7F397FAD6
:100F1000A7F397FAA7F3726A97FAA7F3B3FA83F3E2
:100F200004FA03F313427FF4F5AEFFF7DDFEA0EB06
:100F300008000228E9D93EE794FAA4F3B3FA83F350
:100F40000B449B0002271A60FFF7CEFE804697FAFB
:100F5000A7F397FAA7F397FAA7F3726A97FAA7F39A
:100F6000B3FA83F304FA03F313423FF4D3AEFFF76B
:100F7000BBFEA0EB08000228E9D91CE71B4CE36983
:100F8000D90031D4E36943F08053E361E36903F0AE
:100F900080530193019B0126164F3B68DA052BD540
:100FA000EB68012B39D1236A43F001032362FFF779
:100FB0009BFE022780464FF0010941F2883A97FADA
:100FC000A7F397FAA7F3226A97FAA7F3B3FA83F382
:100FD00009FA03F3134253D0002E3FF49FAEE369A6
:100FE00023F08053E36199E60026D5E70010024024
:100FF00020819010007000403B6843F480733B6098
:10100000FFF772FE80463B68DB05C9D4FFF76CFE34
:10101000A0EB08006428F6D9CDE61BBB236A23F0B9
:1010200001032362236A23F004032362FFF75CFEBB
:10103000022780464FF0010941F2883A97FAA7F358
:1010400097FAA7F3226A97FAA7F3B3FA83F309FA98
:1010500003F31342C0D0FFF747FEA0EB0800504552
:10106000ECD9A8E6052B236A03D143F004032362DD
:1010700099E723F001032362236A23F0040395E731
:10108000FFF732FEA0EB0800504598D993E6464C96
:10109000626802F00C02082A74D0022B4FF08073B1
:1010A0004DD193FAA3F3B3FA83F303F1845303F519
:1010B00084139B0000221A60FFF716FE4FF00078A1
:1010C0000746012698FAA8F3226898FAA8F3B3FA1B
:1010D00083F306FA03F313422BD1D5E908136268B0
:1010E0000B4322F47412134363604FF0807393FA3E
:1010F000A3F3B3FA83F303F1845303F584139B0042
:1011000001271E60FFF7F0FD4FF00076054696FAC6
:10111000A6F3226896FAA6F3B3FA83F307FA03F369
:1011200013427FF4FFADFFF7DFFD401B0228EED92D
:1011300041E6FFF7D9FDC01B0228C3D93BE693FA6D
:10114000A3F3B3FA83F303F1845303F584139B00F1
:1011500000221A60FFF7C8FD4FF000760546012710
:1011600096FAA6F3226896FAA6F3B3FA83F307FA7F
:1011700003F313423FF4D6ADFFF7B6FD401B022840
:10118000EED918E6012B3FF4EEAD60682B6A00F44F
:1011900080329A427FF4E7AD6B6A00F47010C01A97
:1011A00018BF012008E600BF001002400C4B5A682F
:1011B00002F00C01082911D1DB6A0A48C2F383410D
:1011C000D20344BF03F00F03074A405C49BFD25C1F
:1011D000064B074BB3FBF2F3584370470448704784
:1011E00000100240CA1E0008BA1E000800093D0097
:1011F00000127A002DE9F0410D46044610B9012095
:10120000BDE8F0814A4A136803F007038B422ED3EE
:101210002268910736D4D2073CD4454A136803F0BC
:101220000703AB4270D82268424D12F0040F77D109
:10123000130706D56B68226923F4605343EAC2039F
:101240006B60FFF7B3FF6B68F02292FAA2F2B2FA7A
:1012500082F203F0F003D340374AD35CD840374BD7
:101260001860374B1868FFF7FDFC0020C8E71368CB
:1012700023F007030B431360136803F007038B424B
:10128000BDD1C5E72B49A0684B6823F0F0030343A9
:101290004B60C0E76268274E012A24D14FF4003327
:1012A00093FAA3F1316893FAA3F3B3FA83F302FA42
:1012B00003F30B42A3D0736823F00303134373605B
:1012C000FFF712FD41F2883807467368626803F041
:1012D0000C03B3EB820FA0D0FFF706FDC01B404507
:1012E000F3D903208CE7022A0CBF4FF000730223CE
:1012F00093FAA3F1306893FAA3F30121B3FA83F3CD
:1013000001FA03F30342D5E7136823F007032B43E5
:101310001360136803F00703AB427FF470AF82E7FA
:101320006B68E16823F4E0630B436B6080E700BF08
:101330000020024000100240AA1E00080000002009
:1013400008000020084B4FF4E0625B6892FAA2F2BA
:10135000B2FA82F203F4E063D340044AD35C044A55
:101360001068D840704700BF00100240A21E00085D
:1013700000000020084B4FF460525B6892FAA2F222
:10138000B2FA82F203F46053D340044AD35C044AB5
:101390001068D840704700BF00100240A21E00082D
:1013A0000000002003682DE9F347DD03044624D53F
:1013B000784DEB69D80000F19180EB6943F08053E0
:1013C000EB61EB6903F080530193019B0126724F9F
:1013D0003B68D90540F184802B6A626813F440733E
:1013E00040F093802B6A626823F4407313432B62AE
:1013F0001EB1EB6923F08053EB612368DF0706D54C
:101400006449A0680A6B22F0030202430A639E0744
:1014100006D56049E0680A6B22F4403202430A6351
:101420005D0706D55B4920690A6B22F4402202431E
:101430000A63980606D55749E0690A6B22F0100244
:1014400002430A63990306D55249A06B4A6822F405
:10145000800202434A605A0606D54E49206A0A6B4A
:1014600022F0200202430A631F0706D5494960693A
:101470000A6B22F4401202430A63DE0606D5454990
:10148000A0690A6B22F4400202430A639D0506D557
:101490004049E06A4A6822F4000202434A601806A2
:1014A00006D53C49606ACA6A22F4F8720243CA62ED
:1014B000D90506D53749A06ACA6A22F47852024390
:1014C000CA62DA0406D53349206B0A6B22F48072B3
:1014D00002430A639B0454D4002013E0002676E7FD
:1014E0003B6843F480733B60FFF7FEFB80463B683C
:1014F000DA053FF571AFFFF7F7FBA0EB08006428B2
:10150000F5D9032002B0BDE8F08702F440729A4298
:101510003FF468AF296A4FF4803321F4407093FAA6
:10152000A3F2DFF878C0B2FA82F262449200012797
:10153000176093FAA3F3B3FA83F363449B0000228A
:101540001A60CB0728627FF54DAFFFF7CDFB4FF058
:101550000208814641F2883A98FAA8F398FAA8F36B
:101560002A6A98FAA8F3B3FA83F307FA03F313424B
:101570007FF438AFFFF7B8FBA0EB09005045EBD97B
:10158000BFE7044A616B136B23F400730B431363CF
:10159000A2E700BF001002400070004000819010E0
:1015A0002DE9F74FDFF87C915C4C00230A6832FA92
:1015B00003F502D103B0BDE8F08F012505FA03F869
:1015C00018EA020200F0A0804E68032706F0030527
:1015D0004FEA430E07FA0EFC6F1E012F6FEA0C0C48
:1015E00034D8876807EA0C0ACF6807FA0EF747EA8B
:1015F0000A078760476827EA0808C6F300179F4074
:1016000047EA08074760C76807EA0C088F6807FAC7
:101610000EF747EA0807022DC76019D14FEAD30831
:1016200000EB880803F0070AD8F820704FEA8A0A0E
:101630004FF00F0B0BFA0AFB27EA0B0B0F6907FAA7
:101640000AF747EA0B07C8F8207001E0032DDAD14A
:10165000076805FA0EF507EA0C073D4316F4403F0C
:10166000056051D0D9F8185045F00105C9F8185057
:10167000D9F8185023F0030707F1804705F001055A
:1016800007F58037019503F0030C019DBD684FEA13
:101690008C0C4FF00F0E0EFA0CFEB0F1904F25EAB5
:1016A0000E0E33D01E4DA84232D005F58065A842FB
:1016B00030D005F58065A8422ED005F58065A8429A
:1016C00014BF0525042505FA0CF545EA0E05BD6095
:1016D000A568D74316F4801F0CBF3D401543A56095
:1016E000E56816F4001F0CBF3D401543E5606568D2
:1016F00016F4003F0CBF3D40154365602568F603B6
:1017000054BF3D401543256001334FE70025DAE71C
:101710000125D8E70225D6E70325D4E700040140D8
:1017200000040048001002400AB1816170478162E4
:10173000704700000749CA6822F4E06203021204FD
:1017400003F4E063120C134343F0BF6343F400332C
:10175000CB60704700ED00E0164B30B5DC68C4F399
:101760000224C4F10703251D042B28BF0423062DE2
:101770004FF0FF358CBF033C002405FA03F321EA48
:101780000303A54022EA0502A340002843EA02031E
:10179000ACBF00F16040084A4FEA0313B8BF00F045
:1017A0000F00DBB2AABF00F56140135480F800338C
:1017B00030BD00BF00ED00E014ED00E00138B0F1F5
:1017C000807F0BD24FF0E023054A5861F02182F868
:1017D00023100020072298611A617047012070478A
:1017E00000ED00E070B50446002867D0436A002B86
:1017F0005DD14268B2F5827F00D0C3610023A3624D
:1018000094F85D3003F0FF0223B984F85C20204691
:10181000FFF7A0F82268E068022384F85D301368BF
:10182000B0F5E06F23F0400313604FF0000342D99E
:101830001D46B0F5706F18BFA362A6686368A16902
:1018400006F4044603F482733343266906F0020665
:101850003343666906F00106334301F400763343EF
:10186000E66906F038063343266A06F080063343FD
:10187000A66A06F4005633431360666B636A06F08B
:10188000080603F0100300F470603343090C0343AF
:1018900001F004010B432B435360D36923F400632D
:1018A000D36100200123206684F85D3070BD0023E1
:1018B000C0E90433A2E74FF48055BCE70120F5E707
:1018C000026852E8003F23F4907342E80031026856
:1018D0000029F5D102F1080353E8003F23F001038A
:1018E00002F1080C4CE800310029F3D1036E012B02
:1018F00007D152E8003F23F0100342E800310029ED
:10190000F7D12023C0F88030002303668366704738
:1019100038B50446C06923682569A26819682A4356
:10192000656921F416412A4321F00C0102430A4360
:101930001A605A68E168256A22F440520A435A60E4
:101940009968A26921F430612A430A439A604B4A9C
:1019500093420FD14A4B1B6B03F00303022B6ED053
:10196000032B72D0012B64D0B0F5004F47D0FFF7A6
:1019700001FD4BE0434A934217D1414B1B6B03F4EB
:101980004033B3F5003F5AD007D8002B51D1B0F502
:10199000004F39D1FFF7D6FC33E0B3F5403F54D0C8
:1019A00001200023C4E91A3338BD374A93420AD1D3
:1019B000334B1B6B03F44023B3F5002F3FD0E4D926
:1019C000B3F5402FEBE7314A93420AD12C4B1B6B06
:1019D00003F44013B3F5001F31D0D6D9B3F5401F3F
:1019E000DDE72B4A9342DBD1254B1B6B03F440030D
:1019F000B3F5000F23D0C8D9B3F5400FCFE7FFF7F9
:101A0000B9FC30BB0020CCE7FFF79CFC0028F9D0E4
:101A1000626800EB5203B3FBF2F34FF6EF72A3F1EF
:101A200010019142BCD82268D360EBE7FFF7BEFB00
:101A3000ECE7B0F5004FF9D1FFF7B8FBE1E7B0F5FF
:101A4000004F06D04FF40040E2E7B0F5004F1148D8
:101A5000DED16268530803EB4003B3FBF2F34FF6A9
:101A6000EF72A3F1100191429AD823F00F0221687E
:101A700092B2C3F342031343CB60C3E70038014083
:101A8000001002400044004000480040004C00406C
:101A90000050004000127A00436A1A0710B506D5BC
:101AA0000168446B4A6822F4004222434A60DC0722
:101AB00006D50168846A4A6822F4003222434A60EB
:101AC000990706D50168C46A4A6822F48032224325
:101AD0004A605A0706D50168046B4A6822F48022DE
:101AE00022434A60DC0606D50168846B8A6822F4CA
:101AF000805222438A60990606D50168C46B8A68C1
:101B000022F4005222438A605A060FD50168046C01
:101B10004A6822F480122243B4F5801F4A6005D13E
:101B20004A68446C22F4C00222434A601B0606D570
:101B30000268816C536823F400230B43536010BD8B
:101B40002DE9F843DDF8209004460D4617469846E7
:101B50002268D36935EA03030CBF01230023BB428B
:101B600001D0002022E0B9F1FF3FF2D0FFF7BCF82E
:101B7000A0EB0800484529D8B9F1000F26D021680C
:101B80000B685A07E4D5802DE2D0402DE0D0CE6915
:101B900016F008060CD0082520460D62FFF790FECF
:101BA0000023C4F8845084F878300120BDE8F8831D
:101BB000CB691B05CCD54FF400630B622046FFF7C1
:101BC0007FFE2023C4F8843084F878600320EDE79A
:101BD0002DE9F7439846C36F202B04460E4617465F
:101BE00043D1002943D0002A41D021230025C0F849
:101BF0008450C367FFF778F8A368A4F85070B3F572
:101C0000805F8146A4F8527003D123690BB9354631
:101C10001E46B4F85220CDF8008092B24B463AB935
:101C200040212046FFF78CFF202340B9E36708E0FE
:101C3000002280212046FFF783FF28B12023E3679D
:101C4000032003B0BDE8F08322685EB935F8023B9B
:101C5000C3F308031385B4F85220013A92B2A4F8F2
:101C60005220D6E716F8013BF4E70220E9E701200D
:101C7000E7E773B504460026C0F88460FFF734F840
:101C800023681B681A0705461BD56FF07E43009337
:101C9000324603464FF400112046FFF751FF80B152
:101CA000226852E8003F23F0800342E80031002917
:101CB000F6D12023E3670320002384F8783002B0B4
:101CC00070BD23681B685B0724D56FF07E430093CB
:101CD00000222B464FF480012046FFF731FFC8B1A8
:101CE000226852E8003F23F4907342E800312268F2
:101CF0000029F5D102F1080353E8003F23F0010366
:101D000002F1080040E800310029F3D12023C4F893
:101D10008030D0E720230020E367C4F880302066BD
:101D20006066C9E710B5044640B3C36F1BB980F8BD
:101D30007830FEF741FE22682423E367136823F01E
:101D400001031360636A13B12046FFF7A5FE204626
:101D5000FFF7DEFD012811D023685A6822F4904273
:101D60005A609A6822F02A029A601A6842F00102C8
:101D700020461A60BDE81040FFF77BBF012010BD70
:101D800070B50446002845D090F8913203F0FF0268
:101D90001BB980F89022FEF741FE032384F89132AC
:101DA0002068FEF7A3FE0022257904F110031146F6
:101DB0000126D0B2854203F1280313D8002104F58F
:101DC000A8730A46C8B2854203F1280316D8D4E99D
:101DD00001122068FEF794FE00200123207384F88E
:101DE000913270BD43E9061103F8276C03F8280C03
:101DF00003F8251C43F8101C0132DAE743E90622F8
:101E000003F8272C03F8280C03F8252C43F8102C92
:101E10000131D7E70120E4E7F8B500BFF8BC08BC02
:101E20009E467047F8B500BFF8BC08BC9E46704798
:101E30003D3D3D20437573746F6D20486561702092
:101E40004472697665722028446972656374205310
:101E500052414D29203D3D3D0D0A004461746120F1
:101E6000696E20426C6F636B20310054657874207A
:101E700066726F6D20426C6F636B203200416C6C38
:101E80006F636174696F6E206661696C65642E0DA5
:101E90000A00426C6F636B732066726565642E0D79
:101EA0000A0000000000010203040000000000001E
:101EB00000000102030406070809010203040506E5
:101EC0000708090A0B0C0D0E0F1002030405060784
:0C1ED00008090A0B0C0D0E0F101000008A
:081EDC00A4E4FF7F01000000F7
:041EE40029020008C7
:041EE80001020008EB
:0C1EEC0000127A0001000000100000004D
:0400000508000A8560
:00000001FF
